:100000000C944A000C9469000C9469000C946900EB
:100010000C9469000C9469000C9469000C946900BC
:100020000C9469000C9469000C9469000C946900AC
:100030000C94590C0C9469000C9469000C946900A0
:100040000C9469000C9469000C943C020C946900B7
:100050000C9469000C9469000C9469000C9469007C
:100060000C9469000C9469000C9469000C9469006C
:100070000C9469000C9469000C9469000C9469005C
:100080000C9469000C9469000C9469000C9469004C
:100090000C94690011241FBECFEFD0E1DEBFCDBFAD
:1000A00023E0A6E0B1E001C01D92A233B207E1F760
:1000B00011E0A0E0B1E0ECE4F0E200E00BBF02C030
:1000C00007900D92A630B107D9F70E941E090C9433
:1000D00024100C940000CF93DF9300D0CDB7DEB78F
:1000E00089836A838981813009F58A81813049F465
:1000F0002AE040E060EF70E088E091E00E94FD06B9
:1001000035C08A81882349F42AE041E060EF70E03D
:1001100084E990E00E94FD0629C02AE040E060EFFB
:1001200070E08BEE90E00E94FD0620C08A81813055
:1001300049F423E040E060EF70E080E990E00E9445
:10014000FD0614C08A81882349F423E041E060EF72
:1001500070E080EF90E00E94FD0608C023E040E0E0
:1001600060EF70E080EA90E00E94FD060F900F9033
:10017000DF91CF910895CF93DF9300D0CDB7DEB755
:1001800089836A8389818130A9F48A81813049F425
:1001900022E040E060EF70E08BEF90E00E94FD060F
:1001A0001DC022E041E060EF70E08BE990E00E942A
:1001B000FD0614C08A81813049F424E040E060EFFC
:1001C00070E082E390E00E94FD0608C024E040E079
:1001D00060EF70E08EE890E00E94FD060F900F90B7
:1001E000DF91CF910895CF93DF9300D0CDB7DEB7E5
:1001F00089836A838981813069F48A81813029F415
:1002000080912B030E94EA0A11C080912B030E9467
:10021000250B0CC08A81813029F480912D030E9426
:10022000EA0A04C080912D030E94250B0F900F90C5
:10023000DF91CF910895CF93DF9300D0CDB7DEB794
:1002400089836A830F900F90DF91CF9108950F9368
:100250001F93CF93DF93CDB7DEB7A6970FB6F89471
:10026000DEBF0FBECDBF0D8F1E8F2F8F38A349A3CA
:100270005AA36BA37CA38DA39EA361E080E00E94A0
:10028000BB0061E081E00E94BB0080E090E0AAEF4B
:10029000B4E489839A83AB83BC8320E030E44CE1EF
:1002A00055E469817A818B819C810E948A0EDC01F0
:1002B000CB018D839E83AF83B88720E030E040E898
:1002C0005FE36D817E818F8198850E942D0D88234B
:1002D0002CF481E090E09A8789873FC020E03FEFCF
:1002E0004FE757E46D817E818F8198850E94850E4E
:1002F00018164CF520E030E040E251E469817A8143
:100300008B819C810E948A0EDC01CB01BC01CD0156
:100310000E94A40DDC01CB019A8789870FC08AEF68
:1003200090E09C878B878B859C850197F1F79C8754
:100330008B8789859A8501979A87898789859A8588
:10034000892B69F714C06D817E818F8198850E9409
:10035000A40DDC01CB019A87898789859A859E87C0
:100360008D878D859E850197F1F79E878D8760E04B
:1003700080E00E94BB0060E081E00E94BB0080E062
:1003800090E0AAEFB4E48F87988BA98BBA8B20E01A
:1003900030E44CE155E46F85788989899A890E9417
:1003A0008A0EDC01CB018B8B9C8BAD8BBE8B20E04E
:1003B00030E040E85FE36B897C898D899E890E94EB
:1003C0002D0D88232CF481E090E0988F8F8B3FC017
:1003D00020E03FEF4FE757E46B897C898D899E8948
:1003E0000E94850E18164CF520E030E040E251E402
:1003F0006F85788989899A890E948A0EDC01CB01F0
:10040000BC01CD010E94A40DDC01CB01988F8F8B24
:100410000FC08AEF90E09A8F898F898D9A8D01970E
:10042000F1F79A8F898F8F89988D0197988F8F8B8D
:100430008F89988D892B69F714C06B897C898D8988
:100440009E890E94A40DDC01CB01988F8F8B8F8930
:10045000988D9C8F8B8F8B8D9C8D0197F1F79C8F46
:100460008B8FA6960FB6F894DEBF0FBECDBFDF917F
:10047000CF911F910F9108951F920F9200905F00EE
:100480000F92112400905B000F922F933F934F9394
:100490005F936F937F938F939F93EF93FF93CF938C
:1004A000DF9300D01F92CDB7DEB78DEE90E0FC0158
:1004B00080818B8319829FC08DEE90E029812295E7
:1004C000207FFC0120838EEE90E0FC0180818295EC
:1004D00086958770882F90E081709927892B09F481
:1004E0006BC08FEE90E020E8FC0120838EEE90E060
:1004F0002EEE30E0F90120812F7DFC0120831A824D
:100500001EC08091FB02482F50E08A81282F30E0E6
:100510008AEF90E0FC016081CA01880F991FAC014D
:10052000440F551F440F551F840F951F820F931FB3
:100530008A5F9E4FFC0160838A818F5F8A838A81F4
:100540008830F8F28091FB02682F70E082EF90E033
:10055000FC018081829586958770282F30E083EF9B
:1005600090E0FC018081882F90E0880F991F880F10
:10057000991F880F991F822B932BAC01CB01880FF9
:10058000991F9C01220F331F220F331F820F931FCD
:10059000825F9E4FFC01518340838091FB028F5FFD
:1005A0008093FB02823311F41092FB028091FC02D3
:1005B0008F5F8093FC0223C08EEE90E0FC0180816F
:1005C0008295869586958370882F90E08170992713
:1005D000892B71F08FEE90E0FC0110828EEE90E09E
:1005E0002EEE30E0F90120812F7BFC01208307C033
:1005F00089818F5F898389818F3008F45DCF8DEE8B
:1006000090E02B81FC0120830F900F900F90DF91E1
:10061000CF91FF91EF919F918F917F916F915F911A
:100620004F913F912F910F9000925B000F9000929D
:100630005F000F901F901895CF93DF9300D0CDB738
:10064000DEB788ED90E021E0FC01208319823EC0F6
:100650008DEE90E029812295207FFC0120838EEE93
:1006600090E0FC0110828FEE90E0FC01108283EF9D
:1006700090E0FC01108282EF90E0FC01108281EF9B
:1006800090E0FC01108280EF90E0FC01108287EF87
:1006900090E0FC01108286EF90E0FC01108285EF73
:1006A00090E0FC01108284EF90E0FC0110821A823D
:1006B00007C08AEF90E0FC0110828A818F5F8A83F5
:1006C0008A818830B0F389818F5F898389818F30F7
:1006D00008F4BECF88ED90E022E0FC01208382EE9A
:1006E00090E021E0FC01208383EE90E02AE0FC0111
:1006F000208384EE90E02EE6FC01208385EE90E0DE
:10070000FC0110828BED90E020EBFC0120838FED4B
:1007100090E02FE7FC0120838EED90E02FEFFC01AD
:1007200020830F900F90DF91CF910895CF93DF93A7
:1007300000D000D0CDB7DEB79C838B838DEE90E0E8
:10074000FC0180818A83000089ED90E0FC018081BA
:1007500082958F70882F90E081709927892BA1F75F
:1007600089ED90E0FC018081869586958695882F9D
:1007700090E081709927892B39F719824AC08DEE54
:1007800090E029812295207FFC0120838FEE90E06C
:10079000FC0180818295869586958370882321F05F
:1007A00089818F5F898335C08FEE90E02FE0FC0157
:1007B000208383EF90E02B813C813327369527956A
:1007C0003695279536952795FC01208382EF90E09A
:1007D0002B812295220F207EFC01208386EF90E062
:1007E00020EEFC01208387EF90E02FEFFC012083B7
:1007F0008FEE90E02FEE30E0F90120812068FC01BF
:10080000208378948DEE90E02A81FC01208381E0A2
:100810000AC089818F3008F4B2CF8DEE90E02A8132
:10082000FC01208380E00F900F900F900F90DF91DC
:10083000CF910895CF93DF93CDB7DEB78091FC02BF
:10084000882311F081E001C080E0DF91CF9108950D
:10085000CF93DF9300D01F92CDB7DEB79B838A83FF
:1008600000008091FC028823E1F3F894198222C0F1
:100870008981282F30E08091FA02882F90E0498109
:10088000442F50E0880F991FBC01660F771F660F39
:10089000771F860F971F840F951F8A5F9E4FFC015D
:1008A00040818A819B81820F931FFC014083898153
:1008B0008F5F898389818830D8F28091FA02882FEE
:1008C00090E0880F991F9C01220F331F220F331FC6
:1008D000820F931F825F9E4FFC01208131818A81AC
:1008E0009B81FC01318720878091FA028F5F809382
:1008F000FA02823311F41092FA028091FC028150C4
:100900008093FC0278940F900F900F90DF91CF911D
:1009100008950F931F93CF93DF93CDB7DEB72D9735
:100920000FB6F894DEBF0FBECDBF0C831D832E83A0
:100930003F83488759876A877B878C879D8700001C
:1009400089ED90E0FC01808182958F70882F90E086
:1009500081709927892BA1F789ED90E0FC018081B6
:10096000869586958695882F90E081709927892BAA
:1009700039F78DEE90E0FC0180818B83198215C0E0
:100980008DEE90E029812295207FFC0120838FEE5F
:1009900090E0FC01808182958695869583708823FE
:1009A00009F406C089818F5F898389818F3040F384
:1009B00089818F3011F480E03FC082EF90E02C8578
:1009C0003D852295220F207EFC01208383EF90E05D
:1009D0002C853D853695279536952795369527950F
:1009E000FC0120838FEE90E028E0FC0120831A8236
:1009F00011C08AEF90E02A81222F30E0AE014C5FD7
:100A00005F4F240F351FF9012081FC0120838A816B
:100A10008F5F8A838A81883060F38FEE90E02FEEBB
:100A200030E0F90120812064FC0120838DEE90E00C
:100A30002B81FC01208381E02D960FB6F894DEBF58
:100A40000FBECDBFDF91CF911F910F9108950F93EE
:100A50001F93CF93DF9300D0CDB7DEB79A838983FE
:100A60008DE290E02DE230E0F90120812863FC0165
:100A7000208384E990E0FC011182108288E990E0F3
:100A8000FC01118210828AE990E0FC01118210823F
:100A90008CE990E0FC011182108280E990E02EE365
:100AA000FC01208381E990E029E1FC01208306E933
:100AB00010E089819A81CC01A0E0B0E0BC01CD01B9
:100AC0000E94D30DDC01CB019C01AD0160E876E909
:100AD00088E19BE40E94320DDC01CB0120E030E094
:100AE00040E05FE3BC01CD010E94C00CDC01CB0102
:100AF000BC01CD010E94A40DDC01CB01F801918362
:100B000080830F900F90DF91CF911F910F910895E7
:100B1000CF93DF93CDB7DEB784E490E02CE0FC0107
:100B200020838EE690E02EE630E0F90120812260FD
:100B3000FC01208387E490E02BE2FC0120838FE519
:100B400090E02FE530E0F90120812068FC0120834E
:100B5000DF91CF910895CF93DF93CDB7DEB72E9776
:100B60000FB6F894DEBF0FBECDBF8DE290E02DE250
:100B700030E0F90120812C7FFC01208380EC90E0A3
:100B8000FC01108281EC90E028E1FC01208382ECE2
:100B900090E026E0FC01208385EC90E0FC011082CF
:100BA00084EC90E025E0FC01208380E090E0A8EC5C
:100BB000B2E489839A83AB83BC8320E030E44CE1C8
:100BC00055E469817A818B819C810E948A0EDC01C7
:100BD000CB018D839E83AF83B88720E030E040E86F
:100BE0005FE36D817E818F8198850E942D0D882322
:100BF0002CF481E090E09A8789873FC020E03FEFA6
:100C00004FE757E46D817E818F8198850E94850E24
:100C100018164CF520E030E040E251E469817A8119
:100C20008B819C810E948A0EDC01CB01BC01CD012D
:100C30000E94A40DDC01CB019A8789870FC08AEF3F
:100C400090E09C878B878B859C850197F1F79C872B
:100C50008B8789859A8501979A87898789859A855F
:100C6000892B69F714C06D817E818F8198850E94E0
:100C7000A40DDC01CB019A87898789859A859E8797
:100C80008D878D859E850197F1F79E878D872E969E
:100C90000FB6F894DEBF0FBECDBFDF91CF910895A0
:100CA000CF93DF931F92CDB7DEB78983000080EC2E
:100CB00090E0FC018081882F90E080729927892B39
:100CC000B1F386EC90E02981FC0120830F90DF9145
:100CD000CF910895CF93DF93CDB7DEB7000080ECBE
:100CE00090E0FC0180818823D4F786EC90E0FC0141
:100CF0008081DF91CF910895CF93DF93CDB7DEB799
:100D000027970FB6F894DEBF0FBECDBF27E0CE0108
:100D10000196FC01322F11923A95E9F70E946A067A
:100D200089830E946A068A830E946A068B830E94D6
:100D30006A068C830E946A068D830E946A068E83EF
:100D400027960FB6F894DEBF0FBECDBFDF91CF91CF
:100D50000895CF93DF93CDB7DEB7000080EC90E02D
:100D6000FC018081882F90E080749927892BB1F352
:100D700081EC90E021EC30E0F9012081277FFC013B
:100D8000208380EC90E020EC30E0F90120812064A9
:100D9000FC012083DF91CF910895CF93DF93CDB7EE
:100DA000DEB781EC90E021EC30E0F9012081286091
:100DB000FC012083DF91CF910895CF93DF93CDB7CE
:100DC000DEB781EC90E021EC30E0F90120812F7E4C
:100DD000FC012083DF91CF910895CF93DF93CDB7AE
:100DE000DEB781EC90E021EC30E0F9012081206158
:100DF000FC012083DF91CF910895CF93DF93CDB78E
:100E0000DEB76A970FB6F894DEBF0FBECDBF9E8BDC
:100E10008D8B788F6F8B498F2A8F8D899E89CC011E
:100E2000A0E0B0E0BC01CD010E94D30DDC01CB01FC
:100E300020E030E046E953E4BC01CD010E94320DD0
:100E4000DC01CB0120E030EC4FE754E4BC01CD01E4
:100E50000E948A0EDC01CB01BC01CD010E94A40DD1
:100E6000DC01CB019E8B8D8B8D899E89892F9927E3
:100E700089838D898A83898D882F90E0982F882790
:100E8000990F990F9C018F89988D822B932B988FA6
:100E90008F8B8F89988D892F99278B838F898C834E
:100EA0008A8D882F90E09C01285D3F4F8B81882F91
:100EB00090E0280F391F8C81882F90E0280F391F70
:100EC0008981882F90E0280F391F8A81882F90E030
:100ED000820F931F809590959E838D830E94DD06DF
:100EE0008FEF0E9450068FEF0E9450068A8D0E945D
:100EF000500687E00E94500683E00E9450068EE173
:100F00000E9450068A810E94500689810E945006E4
:100F10008C810E9450068B810E9450068D810E9418
:100F200050060E94A9060E94ED0680E090E0A8E429
:100F3000B2E48F839887A987BA8720E030E44CE138
:100F400055E46F81788589859A850E948A0EDC0137
:100F5000CB018B879C87AD87BE8720E030E040E8DF
:100F60005FE36B857C858D859E850E942D0D882392
:100F70002CF481E090E0988B8F873FC020E03FEF1A
:100F80004FE757E46B857C858D859E850E94850E95
:100F900018164CF520E030E040E251E46F8178858E
:100FA00089859A850E948A0EDC01CB01BC01CD01A6
:100FB0000E94A40DDC01CB01988B8F870FC08AEFB4
:100FC00090E09A8B898B89899A890197F1F79A8B9E
:100FD000898B8F8598890197988B8F878F859889C2
:100FE000892B69F714C06B857C858D859E850E9451
:100FF000A40DDC01CB01988B8F878F8598899C8B02
:101000008B8B8B899C890197F1F79C8B8B8B0E9432
:10101000CD066A960FB6F894DEBF0FBECDBFDF9146
:10102000CF910895CF93DF93CDB7DEB760970FB61A
:10103000F894DEBF0FBECDBF8CEE9FEF9A838983FD
:101040000E94DD068FEF0E9450068FEF0E9450062F
:1010500081E00E94500687E00E94500683E00E94D3
:10106000500686E00E94500680E00E94500680E014
:101070000E9450068FEF0E94500683E00E945006A7
:1010800089810E9450060E94A9060E94ED0680E018
:1010900090E0A8E4B2E48B839C83AD83BE8320E020
:1010A00030E44CE155E46B817C818D819E810E940E
:1010B0008A0EDC01CB018F839887A987BA8720E04D
:1010C00030E040E85FE36F81788589859A850E94EA
:1010D0002D0D88232CF481E090E09C878B873FC006
:1010E00020E03FEF4FE757E46F81788589859A8547
:1010F0000E94850E18164CF520E030E040E251E4E5
:101100006B817C818D819E810E948A0EDC01CB01E6
:10111000BC01CD010E94A40DDC01CB019C878B8713
:101120000FC08AEF90E09E878D878D859E85019701
:10113000F1F79E878D878B859C8501979C878B8790
:101140008B859C85892B69F714C06F81788589858B
:101150009A850E94A40DDC01CB019C878B878B852F
:101160009C85988B8F878F8598890197F1F7988B4D
:101170008F870E94CD0660960FB6F894DEBF0FBE33
:10118000CDBFDF91CF910895CF93DF93CDB7DEB779
:1011900028970FB6F894DEBF0FBECDBF9E838D8318
:1011A00078876F831A8219821C821B828F819885AF
:1011B0009A8389838D819E81982F8827990F990F13
:1011C00029813A81822B932B9A83898389819A8101
:1011D0008996809590959C838B830E94DD068FEF86
:1011E0000E9450068FEF0E94500681E00E94500638
:1011F00085E00E94500683E00E94500680E20E9433
:10120000500689810E94500689819A81892F9927E9
:101210000E9450068B810E9450060E94A9060E94DF
:10122000ED060E947C060E94CD0628960FB6F89423
:10123000DEBF0FBECDBFDF91CF9108950F931F93F7
:10124000CF93DF93CDB7DEB768970FB6F894DEBFC4
:101250000FBECDBF0E94AB050E941C0384ED90E041
:101260000E9496030E948B0C80E090E0AAE7B4E411
:1012700089839A83AB83BC8320E030E44CE155E45E
:1012800069817A818B819C810E948A0EDC01CB016D
:101290008D839E83AF83B88720E030E040E85FE332
:1012A0006D817E818F8198850E942D0D88232CF47D
:1012B00081E090E09A8789873FC020E03FEF4FE7C9
:1012C00057E46D817E818F8198850E94850E181666
:1012D0004CF520E030E040E251E469817A818B8175
:1012E0009C810E948A0EDC01CB01BC01CD010E94D1
:1012F000A40DDC01CB019A8789870FC08AEF90E0AB
:101300009C878B878B859C850197F1F79C878B87C2
:1013100089859A8501979A87898789859A85892BF6
:1013200069F714C06D817E818F8198850E94A40D1C
:10133000DC01CB019A87898789859A859E878D876D
:101340008D859E850197F1F79E878D870F8518897A
:1013500029893A894B895C896D897E898F89988D25
:101360000E942701F3CF0F931F93CF93DF9300D0F9
:1013700000D0CDB7DEB79B838A836C838091250331
:101380008A3010F080E08FC080912503082F10E094
:1013900086E090E00E94F70E9C01C801880F991F1B
:1013A00083509D4FFC013183208380912503882F3A
:1013B00090E0880F991F83509D4FFC01808191819F
:1013C000892B11F48FEF6FC080912503882F90E057
:1013D000880F991F83509D4FFC01808191812A8144
:1013E0003B81FC013183208380912503882F90E08D
:1013F000880F991F83509D4FFC01808191812C8122
:10140000FC012283198216C080912503882F90E069
:10141000880F991F83509D4FFC0120813181898164
:10142000882F90E0820F931F0396FC011082898120
:101430008F5F89838981833038F38A819B8101970B
:101440002A813B8121503109F9012081622F2C81B1
:10145000422F50E021E030E002C0220F331F4A95B6
:10146000E2F720952623FC0120838A819B81FC01E1
:101470008081482F8C81282F30E081E090E002C0ED
:10148000880F991F2A95E2F7842B282F8A819B8148
:10149000FC012083809125038983809125038F5F40
:1014A0008093250389810F900F900F900F90DF910B
:1014B000CF911F910F9108950F931F93CF93DF93B7
:1014C00000D000D0CDB7DEB79B838A836C83809138
:1014D00026038A3010F08FEF74C080912603082F06
:1014E00010E083E090E00E94F70E9C01C801880F95
:1014F000991F8F5E9C4FFC013183208380912603CE
:10150000882F90E0880F991F8F5E9C4FFC0180818F
:101510009181892B11F48FEF54C080912603882F7D
:1015200090E0880F991F8F5E9C4FFC018081918114
:101530002A813B81FC013183208380912603882FFF
:1015400090E0880F991F8F5E9C4FFC0180819181F4
:101550002C81FC0122838A819B8101972A813B8116
:1015600021503109F9012081622F2C81422F50E056
:1015700021E030E002C0220F331F4A95E2F7262B0C
:10158000FC0120838A819B81FC018081482F8C8112
:10159000282F30E081E090E002C0880F991F2A9543
:1015A000E2F780958423282F8A819B81FC01208388
:1015B000809126038983809126038F5F8093260381
:1015C00089810F900F900F900F90DF91CF911F9115
:1015D0000F910895CF93DF931F92CDB7DEB7898324
:1015E000809126039981981710F08FEF2AC0898186
:1015F000882F90E0880F991F8F5E9C4FFC0180819F
:101600009181FC018281282F30E081E090E0AC01E3
:1016100002C0440F551F2A95E2F79A018981882F4D
:1016200090E0880F991F8F5E9C4FFC018081918113
:10163000FC0180819181FC014081242BFC012083ED
:1016400081E00F90DF91CF910895CF93DF931F92A8
:10165000CDB7DEB78983809126039981981710F062
:101660008FEF2BC08981882F90E0880F991F8F5EA4
:101670009C4FFC0180819181FC018281282F30E008
:1016800081E090E002C0880F991F2A95E2F79C0143
:10169000209530958981882F90E0880F991F8F5E63
:1016A0009C4FFC0180819181FC0180819181FC0132
:1016B00040812423FC01208380E00F90DF91CF91B3
:1016C0000895CF93DF931F92CDB7DEB789838981C9
:1016D000882F90E0880F991F83509D4FFC018081D7
:1016E0009181FC0123818981882F90E0880F991FC7
:1016F00083509D4FFC0180819181FC018481282BC6
:101700008981882F90E0880F991F83509D4FFC019D
:1017100080819181FC018581922F982B81E0992312
:1017200009F080E00F90DF91CF910895CF93DF9380
:1017300000D0CDB7DEB78A8319828A81882F90E0E6
:10174000880F991F83509D4FFC0180819181FC017E
:10175000808191810297FC018081882F90E02A810D
:10176000222F30E0220F331F23503D4FF9012081FB
:101770003181F9012281222F30E002C095958795B1
:101780002A95E2F78170898389810F900F90DF910C
:10179000CF910895EF92FF920F931F93CF93DF9312
:1017A0001F92CDB7DEB7809127038F5F8093270309
:1017B00080912703833010F01092270319821BC0F9
:1017C0008981882F90E0880F991F83509D4FFC01DD
:1017D000E080F18080912703082F10E089810E942A
:1017E000960B282FC701800F911F0396FC012083C1
:1017F00089818F5F8983809125039981981700F3F0
:101800000F90DF91CF911F910F91FF90EF9008956E
:101810000F931F93CF93DF9300D0CDB7DEB79A839A
:10182000898380E890E0FC01108281E890E029E063
:10183000FC01208308E810E089819A81CC01A0E0B6
:10184000B0E0BC01CD010E94D30DDC01CB019C01B5
:10185000AD0160E876E988E19BE40E94320DDC018D
:10186000CB0120E030E040E05FE3BC01CD010E940D
:10187000C10CDC01CB01BC01CD010E94A40DDC0137
:10188000CB01F801918380838FE690E022E0FC0198
:1018900020838FE590E02FE530E0F901208120687A
:1018A000FC0120830F900F90DF91CF911F910F913A
:1018B00008951F920F9200905F000F9211240090E4
:1018C0005B000F922F933F934F935F936F937F93A0
:1018D0008F939F93AF93BF93EF93FF93CF93DF9338
:1018E000CDB7DEB70E94CA0BDF91CF91FF91EF9188
:1018F000BF91AF919F918F917F916F915F914F9128
:101900003F912F910F9000925B000F9000925F002B
:101910000F901F901895CF93DF93CDB7DEB788EE69
:1019200093E00E94080C67E081E390E00E945C0A6B
:101930008093280366E081E390E00E945C0A809334
:10194000290365E081E390E00E945C0A80932C0308
:1019500063E08EE290E00E945C0A80932A0364E0D8
:101960008EE290E00E945C0A80932B0365E08EE299
:1019700090E00E945C0A80932D03DF91CF9108953F
:101980005058BB27AA270E94D80C0C944B0E0E94DB
:101990003D0E38F00E94440E20F039F49F3F19F4B8
:1019A00026F40C943A0E0EF4E095E7FB0C94340EFA
:1019B000E92F0E945C0E58F3BA1762077307840779
:1019C000950720F079F4A6F50C947E0E0EF4E095C0
:1019D0000B2EBA2FA02D0B01B90190010C01CA01E9
:1019E000A0011124FF27591B99F0593F50F4503E94
:1019F00068F11A16F040A22F232F342F4427585F86
:101A0000F3CF469537952795A795F0405395C9F79D
:101A10007EF41F16BA0B620B730B840BBAF0915055
:101A2000A1F0FF0FBB1F661F771F881FC2F70EC0F4
:101A3000BA0F621F731F841F48F4879577956795C7
:101A4000B795F7959E3F08F0B0CF9395880F08F0B3
:101A50009927EE0F9795879508950E94100E08F428
:101A600081E008950E94460D0C944B0E0E94440E96
:101A700058F00E943D0E40F029F45F3F29F00C948D
:101A8000340E51110C947F0E0C943A0E0E945C0E91
:101A900068F39923B1F3552391F3951B550BBB279D
:101AA000AA2762177307840738F09F5F5F4F220FE2
:101AB000331F441FAA1FA9F335D00E2E3AF0E0E8D9
:101AC00032D091505040E695001CCAF72BD0FE2F23
:101AD00029D0660F771F881FBB1F261737074807B7
:101AE000AB07B0E809F0BB0B802DBF01FF2793586F
:101AF0005F4F3AF09E3F510578F00C94340E0C94F1
:101B00007F0E5F3FE4F3983ED4F386957795679513
:101B1000B795F7959F5FC9F7880F911D96958795A3
:101B200097F90895E1E0660F771F881FBB1F6217C2
:101B300073078407BA0720F0621B730B840BBA0B80
:101B4000EE1F88F7E09508950E94640E88F09F5775
:101B500098F0B92F9927B751B0F0E1F0660F771FD1
:101B6000881F991F1AF0BA95C9F714C0B13091F0C7
:101B70000E947E0EB1E008950C947E0E672F782FA0
:101B80008827B85F39F0B93FCCF38695779567958C
:101B9000B395D9F73EF490958095709561957F4FF8
:101BA0008F4F9F4F0895E89409C097FB3EF490959E
:101BB0008095709561957F4F8F4F9F4F9923A9F026
:101BC000F92F96E9BB279395F695879577956795B5
:101BD000B795F111F8CFFAF4BB0F11F460FF1BC0F9
:101BE0006F5F7F4F8F4F9F4F16C0882311F096E98C
:101BF00011C0772321F09EE8872F762F05C066233A
:101C000071F096E8862F70E060E02AF09A95660FF2
:101C1000771F881FDAF7880F9695879597F90895AB
:101C2000990F0008550FAA0BE0E8FEEF16161706ED
:101C3000E807F907C0F012161306E407F50798F055
:101C4000621B730B840B950B39F40A2661F0232B6E
:101C5000242B252B21F408950A2609F4A140A695EA
:101C60008FEF811D811D089597F99F6780E870E0CF
:101C700060E008959FEF80EC089500240A94161602
:101C8000170618060906089500240A94121613066A
:101C9000140605060895092E0394000C11F48823F8
:101CA00052F0BB0F40F4BF2B11F460FF04C06F5F14
:101CB0007F4F8F4F9F4F089557FD9058440F551FEA
:101CC00059F05F3F71F04795880F97FB991F61F0BE
:101CD0009F3F79F087950895121613061406551F35
:101CE000F2CF4695F1DF08C0161617061806991FA1
:101CF000F1CF86957105610508940895E894BB2796
:101D000066277727CB0197F908950E94100E08F4F3
:101D10008FEF08950E949D0E0C944B0E0E943D0E75
:101D200038F00E94440E20F0952311F00C94340EEC
:101D30000C943A0E11240C947F0E0E945C0E70F3EA
:101D4000959FC1F3950F50E0551F629FF001729F60
:101D5000BB27F00DB11D639FAA27F00DB11DAA1F6F
:101D6000649F6627B00DA11D661F829F2227B00DBC
:101D7000A11D621F739FB00DA11D621F839FA00D47
:101D8000611D221F749F3327A00D611D231F849F97
:101D9000600D211D822F762F6A2F11249F575040EE
:101DA0009AF0F1F088234AF0EE0FFF1FBB1F661F69
:101DB000771F881F91505040A9F79E3F510580F032
:101DC0000C94340E0C947F0E5F3FE4F3983ED4F3F2
:101DD000869577956795B795F795E7959F5FC1F7D6
:101DE000FE2B880F911D9695879597F90895CF93AF
:101DF000DF938230910510F482E090E0E0913003AF
:101E0000F091310320E030E0C0E0D0E0309711F1F4
:101E10004081518148175907C0F04817590761F4AC
:101E200082819381209719F09B838A832BC09093A2
:101E300031038093300326C02115310519F0421774
:101E4000530718F49A01BE01DF01EF010280F3810C
:101E5000E02DDCCF2115310509F1281B390B243089
:101E6000310590F412968D919C911397611571052F
:101E700021F0FB019383828304C09093310380930C
:101E80003003FD01329644C0FD01E20FF31F819340
:101E90009193225031092D933C933AC020912E0307
:101EA00030912F03232B41F4209102013091030143
:101EB00030932F0320932E032091000130910101D4
:101EC0002115310541F42DB73EB7409104015091E1
:101ED0000501241B350BE0912E03F0912F03E2172F
:101EE000F307A0F42E1B3F0B2817390778F0AC013D
:101EF0004E5F5F4F2417350748F04E0F5F1F50931A
:101F00002F0340932E038193919302C0E0E0F0E011
:101F1000CF01DF91CF9108950F931F93CF93DF935C
:101F2000009709F48CC0FC01329713821282009151
:101F30003003109131030115110581F420813181A5
:101F4000820F931F20912E0330912F0328173907FA
:101F500079F5F0932F03E0932E0371C0D80140E090
:101F600050E0AE17BF0750F412962D913C91139795
:101F7000AD012115310509F1D901F3CF9D01DA0138
:101F80003383228360817181860F971F82179307A5
:101F900069F4EC0128813981260F371F2E5F3F4FEE
:101FA000318320838A819B8193838283452B29F40B
:101FB000F0933103E093300342C01396FC93EE9309
:101FC0001297ED01499159919E01240F351FE21797
:101FD000F30771F480819181840F951F0296119609
:101FE0009C938E938281938113969C938E931297E8
:101FF000E0E0F0E0D80112968D919C911397009744
:1020000019F0F8018C01F6CF8D919C9198012E5F0B
:102010003F4F820F931F20912E0330912F032817DB
:10202000390769F4309729F4109231031092300384
:1020300002C01382128210932F0300932E03DF91AC
:0C204000CF911F910F910895F894FFCFED
:06204C0000003203200039
:00000001FF
